:100000000C9415020C9432020C9432020C94D21609
:100010000C9432020C9432020C9432020C94320290
:100020000C9432020C9432020C947A1D0C944E1EE5
:100030000C94B1180C9432020C9432020C943202DB
:100040000C9432020C9432020C9432020C94320260
:100050000C9432020C9454190C9432020C94320217
:100060000C9432020C9432020C9432020C94320240
:100070000C9432020C9432020C9432020C94320230
:100080000C9432020C9432020C9432020C94320220
:100090000C9432020C9432020C9432020C94320210
:1000A0000C9432020C9432020C9432020102E601EA
:1000B000011F0103E6000102E101012D0103E1003E
:1000C0000102E101011E0103E10001012D00010215
:1000D000E101011F0103E1000102E6010126010324
:1000E000E6000102E60101250103E6000102E60146
:1000F00001270103E6000102E60101240103E600F5
:1001000029001E001F002000210022002B001400E7
:100110001A00080015001700E1000400160007008F
:1001200009000A00E0001D001B0006001900050080
:100130000000E300E20021522C224C003200270094
:1001400026002500240023003000130012000C00BC
:1001500018001C00640033000F000E000D000B009F
:100160002E00380037003600100011000000390062
:10017000E600225228322A0001000100010001009D
:100180000100010035001E021F022002210222028E
:100190003500477E467E447E457E270201000100F1
:1001A0000100010001000100000001000100010048
:1001B0000100010001000100010001000100010037
:1001C0002D02270226022502240223023502417E47
:1001D000437E427E407E2302310230022F02010024
:1001E000010001000000010001006252280001002E
:1001F0003A003B003C003D003E003F002900550016
:100200005F00600061005700010054005C005D0069
:100210005E0056000100620059005A005B00630056
:100220000000010001006152280001004500440067
:10023000430042004100400001004B004D005200CD
:100240004A00490001004E004F00510050000100DB
:100250000100010001000100010001000000010097
:10026000010001000100010000000000000000008A
:10027000000000000000000000000000000000007E
:10028000000000000000000000000000000000006E
:10029000000000000000000000000100010001005B
:1002A000010000000000000000000000000000004D
:1002B000000000000000000000000000000000003E
:1002C000000000000000000000000000000000002E
:1002D000000000000000010001000100010000001A
:1002E00000000000000000002A2B28000000000091
:1002F00000000000000000000000002900000000D5
:100300002C1E3420212224342627252E362D373842
:10031000271E1F202122232425263333362E37384B
:100320001F0405060708090A0B0C0D0E0F10111209
:10033000131415161718191A1B1C1D2F3130232DD5
:10034000350405060708090A0B0C0D0E0F101112D3
:10035000131415161718191A1B1C1D2F3130354C84
:10036000000000000000000000000000000000008D
:10037000000000000000000000000000000000007D
:10038000000000007E0F00D4FFFFFFC700000078D0
:100390000E034C0069006C00790035003800000045
:1003A00010036C0069006C00690075006D0073003B
:1003B00000000403090409022200010100A0FA0957
:1003C0000400000103010100092111010001224084
:1003D0000007058103080001120100020000000867
:1003E000D8042DEB00010102000105010906A1015D
:1003F000050719E029E71500250195087501810217
:100400009501750881010507190029FF150026FFD0
:1004100000950675088100050819012905950575DF
:10042000019102950175039101C011241FBECFEF08
:10043000DAE0DEBFCDBF11E0A0E0B1E0ECEEF1E428
:1004400002C005900D92A233B107D9F722E0A2E3D2
:10045000B1E001C01D92AC32B207E1F70E949A13DD
:100460000C94AC200C94000023E042E061E00E9478
:100470002608089580549E478930910578F4FC0140
:10048000E255FF4DDB0115969C910C9407209923B2
:1004900029F060E086EF90E00E94F81481E0089572
:1004A0009923E1F360E08CEE90E0F6CF9923B1F36D
:1004B00060E082EE90E0F0CF992381F360E088ED78
:1004C00090E0EACF992351F360E08EEC90E0E4CF26
:1004D000992321F360E08AEC90E0DECF9923F1F2DA
:1004E00060E080EC90E0D8CF9923C1F260E086EB29
:1004F00090E0D2CF992391F260E08CEA90E0CCCFEB
:100500008430B8F46A30A8F4463098F450E096E0AD
:10051000699F400D511D1124FA019CE3899FE00D54
:10052000F11D1124EE0FFF1FE050FF4F85919491B4
:10053000089581E090E008950E948002089581E08E
:1005400008950E949F02089581E008950E943A0252
:10055000089508950E94A9020895A6E0B0E0E3EB93
:10056000F2E00C941C2049835A839E833091390118
:1005700089819A8131111AC03E81332399F0222357
:1005800089F00E94C607182F682F89819A810E94DE
:10059000A20769817A81812F0E94980E2696E3E056
:1005A0000C9438200E94B407182FF3CF0E94C6077E
:1005B00069817A81F1CFFC01262F408151816281CE
:1005C0007381848195810E94AD020895CF93DF935A
:1005D000EC0161E00E94DB02BE010E94A102DF91FA
:1005E000CF910895CF93DF93EC0160E00E94DB028E
:1005F000BE010E94AA02DF91CF91089508950E9442
:100600007A060E94FE022FEF84E39CE02150804096
:100610009040E1F700C0000008950E94FF020E9490
:10062000781908950E94FF020E94891908950F9376
:100630001F93CF93DF938C0161E00E94DB02EC01FA
:10064000B8010E94A602811106C080E0DF91CF911F
:100650001F910F910895B801CE010E94EE158823D5
:10066000A1F3B801CE010E94BF13882371F3B80132
:10067000CE010E946015882341F3F801858188230B
:1006800061F0C330FCE7DF07E9F058F4C115ECE78F
:10069000DE07A9F0C130DC47B9F0C8010E94A4020E
:1006A000D5CFCB358CE7D807A9F0CC35ECE7DE0702
:1006B00071F0CA35DC4789F70E940F0CEECF0E941B
:1006C0000D03C3CF0E94170C0E941203BECF0E94DD
:1006D000050CE3CF0E94130CE0CF0E948E180E94FD
:1006E000940308950E9498030E9493180895089512
:1006F00081E008950895CF93DF93D82F0E94780367
:10070000C82F882319F08D2F0E947A038C2FDF9138
:10071000CF9108950895CF93C82F0E9477038C2F0F
:100720000E947B03CF91089580E00E948B0308957F
:100730000E94F8170E948B030895CF930E94F81728
:10074000C82F809134018C1779F0C09334010E9436
:100750001D19609335017093360180933701909392
:1007600038018C2F0E948B03CF910895ADE0B0E04B
:10077000ECEBF3E00C941D20488759876A877B8750
:100780008C879D8791110E943D0B1F8286E0FE01A0
:100790003896DE01119601900D928A95E1F78D81D0
:1007A00081110DC029813A814B815C816D817E81EF
:1007B0008F810E94700A2D96E2E00C943920CE01C0
:1007C00001960E94E6028111EDCFF5CFFC01248154
:1007D000213021F4808191810E94F8070895CF9300
:1007E000C82F8823B9F08CEF8C0F813AA8F46C2FB6
:1007F00080910001909101010E942918882329F01D
:100800008C2F0E94FD0A0E94760B8C2F0E94F50A05
:100810000E94760BCF91089580E28C0F8830D0F73C
:10082000C77081E001C0880FCA95EAF70E94200BCB
:10083000EFCF882341F09CEF980F913A28F40E9463
:10084000FD0A0E94760B089590E2980F9830D8F731
:10085000877091E001C0990F8A95EAF7892F0E946D
:10086000260BEFCF1F93CF93DF93182FEB010E943E
:10087000EF03209739F4812F0E941904DF91CF9163
:100880001F9108958FE99FE00197F1F700C00000E4
:100890002197EFCF70E060E0893311F460E570E0FC
:1008A0000E9432040895882321F00E94200B0E94A8
:1008B000760B0895882321F00E94260B0E94760B68
:1008C0000895B0E0A0E0E7E6F4E00C9416206C0197
:1008D000D62FC72FFC011581068102950F700E944B
:1008E000160BE82E8823E9F0E12E1123D1F08C2F8E
:1008F000807F803451F080E28D0F8830F8F0011154
:1009000004C08C2F807E8032C9F08091040282FF67
:1009100015C082E00E94D90B0E94160B91E0E82ED0
:10092000E926BC2EB2949FE0B922FBE0FB15B8F19A
:10093000EB2DF0E0E954FF4D0C940720E12CF1CFB2
:100940000C2F0F70C07F11F00295007F112399F0DA
:10095000002359F080E28D0F883010F0D11107C0CC
:10096000802F0E94200B0E94760B8D2F5AC0802F63
:100970000E94300BF8CF8D2F0E941904002379F0CC
:1009800080E28D0F883010F0D11104C0802F0E94BA
:10099000260B03C0802F0E94360B0E94760BEB2D96
:1009A000E850FF0B349720F40E94F8170E948B0345
:1009B000EE2089F00E94120B80FD0DC0F601158219
:1009C0000E940C0B0E940007C6010E944D060E9467
:1009D0000C0B0E941007CDB7DEB7E9E00C94322073
:1009E0002C2F2F70F22EC07FC03219F0F29480EFBE
:1009F000F822DD2341F0D130D1F1112309F444C0B4
:100A00000023F1F0B2CF8091040282FD15C01123C2
:100A100059F0FF2029F08F2D0E94200B0E94760BA9
:100A200080E00E94EF03BBCF80E00E941904FF200A
:100A300009F4B5CF8F2DABCF112369F0011104C09C
:100A40008F2D0E945304ABCF013009F0A8CF8F2D1A
:100A50000E94540BA4CF0111A2CF8F2D0E945A04E3
:100A60008F2D0E94600B8F2D0E94440B98CF112375
:100A700021F0033008F093CFE3CF023008F08FCF9E
:100A80008F2D0E945A048BCF0023D1F3D93349F420
:100A90003FEF87EE93E0315080409040E1F700C097
:100AA00000008D2F0E9419047ACF8C2F8370A1F53E
:100AB000111175CF4D2F429546954770440F440F45
:100AC0002D2F2F7030E0042E02C0220F331F0A9406
:100AD000E2F790E080E0D4FF09C08FE090E002C030
:100AE000880F991F4A95E2F780959095C695C6950F
:100AF000C370822B932BC23049F058F4C13019F0E7
:100B00000E94D3064CCF0E94CA0649CF0E94DC0641
:100B100046CF0E94C70643CF8695112311F08C2F34
:100B20008170882309F43BCF4D2F4295469547703D
:100B3000440F440F2D2F2F7030E0042E02C0220FDF
:100B4000331F0A94E2F790E080E0D4FF09C08FE001
:100B500090E002C0880F991F4A95E2F78095909522
:100B6000C695C695C370822B932BC23049F058F4BA
:100B7000C13019F00E943B0712CF0E9432070FCFFD
:100B80000E9444070CCF0E94E80609CFCF701123C2
:100B900029F08C2F0E9400078D2F53CF8D2F0E949C
:100BA0005A048C2F0E941007FACED23F41F160F414
:100BB000D03FB9F0D13F81F0112309F446C00111B3
:100BC000D4CE8C2F8F711FC0D33F01F1D43FA1F73A
:100BD0008091040282FD24C08C2F8F71112311F3A8
:100BE00012C0112341F0023008F0D9CE8C2F8F7142
:100BF0000E942207D4CE033008F0D1CEF7CF8C2F3D
:100C00008F711111CFCF0E940007C9CE112329F097
:100C10008C2F8F710E94F406C2CE0E94EF06BFCEC9
:100C2000112349F0CF718C2F0E94000763E08C2FB5
:100C30000E94BB0BB4CE81E00E94D90B023008F4B5
:100C4000AECE82E00E94D90BAACE002359F0D93350
:100C500009F027CFEFEFF7EE23E0E150F04020401E
:100C6000E1F71DCF8C2F8F719DCF0F931F93CF93E3
:100C7000DF93EC01688179818D810E9403088C01EA
:100C80000E944D070E94C606B801CE010E94610471
:100C9000DF91CF911F910F910895CF93DF93EC01D6
:100CA0008C81882399F0CE010E941703811111C015
:100CB0000E94160B882351F08D81882339F0809192
:100CC000040282FF03C082E00E94D90BDF91CF9122
:100CD0000895CE010E943506CE010E94F202F6CFA1
:100CE0000E943D0B0E94760B08950E94050B0E9406
:100CF000700608950E942D0B0E9475060895929526
:100D00009F70963091F058F4925F9F70923058F433
:100D1000803F19F030F4883E30F481E008959A5F06
:100D2000F4CF843FD1F380E00895883EB0F3813F53
:100D3000D1F7F3CFFC012481222339F08081918106
:100D40000E94F8070E947F06089580E00895A6E0BB
:100D5000B0E0EDEAF6E00C941D202696E2E00C945B
:100D60003920A7E0B0E0E7EBF6E00C941D202796D1
:100D7000E2E00C94392008950E94BB0608950E9479
:100D8000BC0690935D0180935C01089508950E94D4
:100D9000BF06089520915C0130915D01822B932B59
:100DA0000E94BF06089520915C0130915D0182236D
:100DB00093230E94BF06089520915C0130915D014C
:100DC000822793270E94BF0608950E943402089547
:100DD0000E94E50690935B0180935A01089590E08C
:100DE00080E00E94E806089521E030E0A90102C0F9
:100DF000440F551F8A95E2F7CA010E94E80608953C
:100E000021E030E002C0220F331F8A95E2F7809183
:100E10005A0190915B01822B932B0E94E806089562
:100E200021E030E002C0220F331F8A95E2F72095BF
:100E3000309580915A0190915B01822393230E9407
:100E4000E806089521E030E002C0220F331F8A95A2
:100E5000E2F780915A0190915B01822793270E94CB
:100E6000E806089520915A0130915B01822B932B63
:100E70000E94E806089520915A0130915B01822377
:100E800093230E94E806089520915A0130915B0156
:100E9000822793270E94E80608950895262F277039
:100EA00091E001C0990F2A95EAF723E076956795BE
:100EB0002A95E1F7660F771F660F771FFA01E60F95
:100EC000F71F50E040E0682F70E08191DF0111973B
:100ED0009B01042E02C0369527950A94E2F72170F3
:100EE00021952827292328272C934F5F5F4F4430D3
:100EF000510559F70895A82FA77023E09695879577
:100F00002A95E1F7880F991F880F991FFB01E80FB9
:100F1000F91F50E040E080E0219130E00A2E02C04D
:100F2000369527950A94E2F721703327042E01C0E5
:100F3000220F0A94EAF7822B4F5F5F4F443051052E
:100F400059F70895262F9A3070F4863060F4682F90
:100F500070E086E0989F600D711D11244AE351E016
:100F6000822F0E944E070895292F9A3068F4863008
:100F700058F490E06AE371E036E0239F800D911D04
:100F800011240E947B07089580E00895B0E0A0E05E
:100F9000ECECF7E00C9416207C0100915A011091C2
:100FA0005B0180915C0190915D01082B192BCFE0D2
:100FB000D0E0CC24C394D12CBC2EC6010C2E02C090
:100FC000880F991F0A94E2F780239123892B49F413
:100FD000219790F7B12C8B2DCDB7DEB7E9E00C94BB
:100FE0003220B7018C2F0E94A40E019789F3F3CF12
:100FF000CF93DF93EC010E94C607BE010E94A40EAE
:10100000DF91CF9108951F93CF93DF93EB019091E0
:101010003901992339F0CB010E94F807DF91CF9174
:101020001F910895882369F0CB010E94C607182FED
:10103000682FCE010E94A207BE01812F0E94A40E3C
:10104000EDCFCB010E94B407182FF6CFE1E0F0E01E
:10105000DF0102C0AA0FBB1F6A95E2F7BD01DF01E5
:1010600002C0AA0FBB1F4A95E2F7AD01462B572BD2
:1010700002C0EE0FFF1F2A95E2F79A0128233923B9
:101080002417350719F48E2B9F2B0895E095F095C2
:101090008E239F2308951F93CF93DF93C0915E010A
:1010A00017E080915F018C1304C0DF91CF911F91F5
:1010B0000895D0E01C9FF0011D9FF00D1124E05A0F
:1010C000FE4F208131814281538164817581868107
:1010D0000E94B1062196C770E4CF2091980130910B
:1010E000990140919A0150919B0160919C017091EE
:1010F0009D0180919E010E94B1060895CF93DF93D8
:1011000080919E01807F09F04DC080919D018823D0
:1011100009F448C0E0915E0150915F01C0919901CE
:10112000D091980160919A0170919B0147E05E1700
:10113000C9F18E2F90E0E49FF0011124E05AFE4F98
:101140002481222391F1489FF001499FF00D112441
:10115000DF01A05ABE4F11962C9111972C1325C078
:101160002C912D1322C015962C91159721111DC07D
:1011700012962D913C91261B370B283C3105A8F483
:1011800080919E018F70806180939E01EA59FE4F8D
:1011900080818F708061808388E991E00E944D0694
:1011A0000E944B08DF91CF910895FC013196E770C2
:1011B000BECF482F20915E0190915F0157E0291327
:1011C00002C080E0089530E0529FF001539FF00D7F
:1011D0001124E05AFE4F8181681306C080814813B4
:1011E00003C085818111EECF2F5F3F4F2770E7CF7E
:1011F000A4E1B0E0EEEFF8E00C9413208C0186E05F
:10120000F801DE011F9601900D928A95E1F7F80131
:101210008481E58098E9A92E91E0B92E90919C01F6
:1012200091111FC08823D1F0EE20A9F0C8010E94BF
:101230009A06F82E882379F087E0F801D50101900D
:101240000D928A95E1F7C5010E94E6030E947E088F
:101250000E946D085FC0C8010E944D06FF24F394F0
:1012600059C0C080D18082809380F0909D012091F0
:101270009A0130919B01A401421B530BFF2009F4FA
:10128000F9C0483C510508F0A7C0882309F442C0C2
:101290009091990180919E01282F207F09F05CC0D8
:1012A000D91216C090919801C91212C0E1104EC017
:1012B0008F70806180939E010E946D0888E991E0A3
:1012C0000E944D0680919E01F8018683F12C22C078
:1012D000E1103CC06D2D8C2D0E94D9086D2D8C2DF8
:1012E0000E94D908E82E8111F1CFCF86D88A8F8548
:1012F00098890E94F807292F22952F70243078F4BE
:101300009F702230A8F09923B9F0F8019681907F60
:1013100099F4FE2C8F2D6496ECE00C942F202A5F1C
:101320002F70223068F0C8010E944D06EF2CF1CFDB
:10133000992311F0882369F3805E883050F3F3CF4E
:10134000803F38F3815F833070F7E3CF80919E0157
:10135000816080939E01BACFD91213C090919801F9
:10136000C9120FC0E1100DC08683C8010E944D064E
:1013700087E0F801A8E9B1E001900D928A95E1F7C4
:1013800067CFC8010E949A06882309F464CFEE2033
:1013900009F461CF80919E01803288F020919801FC
:1013A00030919901398728879B868A8690919C0184
:1013B0009C871D868E87CE0108960E944D0687E089
:1013C000F801A8E9B1E001900D928A95E1F70E9439
:1013D0007E080E946D0842CF90919E01292F207FA8
:1013E000A1F4682D9A8A898AA6017A899E2D0E9485
:1013F000A70688E991E00E944D0687E0F501119269
:101400008A95E9F70E946D0861CF882309F482CF9D
:10141000809199018D1110C080919801C8120CC063
:10142000E1100AC09683C8010E944D0687E0F501CD
:1014300011928A95E9F76ECFC8010E949A06882317
:1014400009F409CFEE2009F406CF80919E01803285
:1014500008F4B5CF20919801309199013A832983FE
:101460009C828B8290919C019D831E828F83CE01F2
:101470000196A3CF483C510528F5882309F4EECE08
:10148000FE2CEE2009F4E7CE809199018D110CC05D
:1014900080919801C81208C087E0A8E9B1E00190E6
:1014A0000D928A95E1F736CFC8010E949A06811104
:1014B00086CF80919E01816080939E01C8010E9429
:1014C0004D0628CF682D9A8A898AA6017A899E2D91
:1014D0000E94A70687E0F50111928A95E9F7B8CE38
:1014E000AEE0B0E0E6E7FAE00C941C2028873987EC
:1014F0004A875B876C877D878E87CE0108960E941E
:10150000F8088823B1F06C85662341F02885398579
:101510004A855B857D858E850E94B10617E08091A6
:101520005E0190915F0189133DC02E96E3E00C941B
:10153000382087E0FE013896DE01119601900D9269
:101540008A95E1F78C85882349F320915F0130E08B
:10155000C90101968770992740915E0148171906C5
:1015600099F097E0929FD001939FB00D1124A05A5B
:10157000BE4FFE01319601900D929A95E1F780934E
:101580005F010E944B08CACF0E947A0610925F0149
:1015900010925E0187E0E8E9F1E0DF011D928A9593
:1015A000E9F7BCCF819FC0011124805A9E4F0E9451
:1015B000F808882309F4B9CFE0915E011E9FF0017D
:1015C0001124E05AFE4F2081318142815381648190
:1015D000758186810E94B10680915E0190E001963E
:1015E0008770992780935E019ACF682F80910001C0
:1015F000909101010E945F180895682F8091000169
:10160000909101010E9462180895809100019091CB
:1016100001010E94651808958091A701869586951D
:10162000869508958091A701877008959091A701EC
:10163000977081E009F480E008958091B3010895E6
:101640009091B301892B8093B30108958095909177
:10165000B30198239093B30108951092B3010895B4
:101660009091B201892B8093B20108958095909159
:10167000B20198239093B20108951092B201089597
:1016800008950E94400B08959091A801292F2823C6
:1016900031F0809589238093A8010E94410B089521
:1016A00008950E94500B08959091A901292F282395
:1016B000281729F0982B9093A9010E94510B0895A7
:1016C0009091A901292F282331F0809589238093B7
:1016D000A9010E94510B08958091A901882329F046
:1016E0001092A90180E00E94510B0895CF93DF93DF
:1016F000E0910001F09101018091B3018083E091BC
:101700000001F091010180819091B201892B8083C9
:101710009091A901992381F0E0910001F0910101DC
:101720008081892B808380910001909101010E942A
:10173000171881110E946C0BC0910001D09101011A
:1017400048E050E06FE971E0CE010E944420892B0F
:1017500059F088E0FE01AFE9B1E001900D928A9561
:10176000E1F7CE010E940C18DF91CF910895089502
:101770000E94B70B08959091040292FF11C098E067
:10178000899F90011124622B6093A7010E9400079A
:101790008091A7018695869586950E94B80B08953D
:1017A0000E94000708951092A70180E00E94B80BE4
:1017B00008959091A701809589238093A701282FF0
:1017C000277069F4891759F09091040292FF07C0BD
:1017D0008695869586950E9410070E94D30B0895E2
:1017E0009091040292FB222720F9281769F080FBD0
:1017F00092F99093040280910302909104020E9456
:10180000380C82E00E94D90B08958091040282FB7B
:10181000882780F991E089270E94F00B089581E0E4
:101820000E94F00B089580E00E94F00B08956FEF86
:101830007FEF90E080E00E949620089590E080E0A5
:101840000E94622021E0863E9E4F09F020E0822F18
:10185000089582E090E00E945A20089583E090E08D
:101860000E945A20089584E090E00E94622008952A
:10187000BC0184E090E00E9496200895AB01BC0179
:101880008FE090E00E948A200895AB01BC0183E1C3
:1018900090E00E948A20089560E070E0CB010E94F1
:1018A000450C089560E070E0CB010E943E0C0E9460
:1018B0004C0C0895A8E0B0E0E0E6FCE00C941D209C
:1018C00066EE7EEF90E080E00E94962060E082E08D
:1018D00090E00E94782060E083E090E00E94782011
:1018E00010925D0110925C0160E074E184E090E090
:1018F0000E94962060E086E090E00E9478206FEFE2
:1019000087E090E00E94782040E050E0BA0188E053
:1019100090E00E948A2060E084E290E00E947820BB
:1019200060E087E190E00E94782060E08CE090E049
:101930000E94782060E08DE090E00E94782019827B
:101940001A821B821C821D821E821F82188648E01A
:1019500050E068E170E0CE0101960E94682040E00E
:1019600050E0BA0180E290E00E948A200E94520C6E
:101970002896E2E00C9439200E945A0C0895682FB2
:101980008EE090E00E9478200895A6E0B0E0EBECB5
:10199000FCE00C941B200E9411198C018091B40171
:1019A0009091B5018017910781F019821A820E94E7
:1019B0001119682F49815A81792F80E090E00E94A7
:1019C000B6031093B5010093B4012696E4E00C949D
:1019D00037200E94B40F6093C4017093C5018093B7
:1019E000C6019093C7016093C0017093C1018093B9
:1019F000C2019093C3010895089508950E94FD0CBB
:101A0000089508950E94010D089581E008958EECD7
:101A10009FE00E94EE170E94FC0C0E94FE0C0895AD
:101A20000E9496110895089508950E94130D0E9432
:101A3000140D08950E94D10F0E948A0308950E94F8
:101A400008190E948E0F0E94B1110E94F7100E9487
:101A50001A0D0E94A7130E94BB110E94020D089547
:101A6000A6E0B0E0E6E3FDE00C9414200E94050D32
:101A700081110AC00E94C50C0E9496110E949D030C
:101A80002696EBE00C9430200E941A1186EBA82ECB
:101A900081E0B82E750110E0F70101917F01812FDF
:101AA0000E94F70F1F5F1A3009F441C00817A1F315
:101AB0008091C80181FD0E94FD0F0E94100DC82E6B
:101AC00010E099249394812F0E94F70F082FF501BD
:101AD00081915F01081729F1D02ED826F12CEE2430
:101AE000E3948D2D8E21A9F0CC2099F0F9821A83F0
:101AF0000E9411199C838B839D8291E0802F8E21FF
:101B000009F490E049815A816B817C818D810E942A
:101B1000B603F394EE0CF6E0FF12E3CFF501319734
:101B200000831F5F1A3079F60E94E90CA5CF0813D5
:101B3000BFCFA0CF1F93CF93DF930E94A90EEC01DC
:101B4000C11582E5D80708F03FC0C11590E5D90757
:101B500008F0C2C0C83ED105C0F4C03ED10580F433
:101B6000C53AD10548F4C430D10550F4C130D1058F
:101B700039F0D0E0C0E004C0CD3CD105D0F3D06551
:101B8000CE01DF91CF911F910895C11580E4D80750
:101B900008F053C0C11590E2D90708F0B7C0C115CD
:101BA00081E0D80730F38D2F0E944B0F182FCE0104
:101BB00099270E94A90EC12FD0E0DC2FCC27CC277B
:101BC000DF71C82BD92BDCCFC03892E5D907A8F438
:101BD000C03682E5D80708F063C0C03492E5D90763
:101BE00008F049C0C03282E5D80788F1CF71D0E053
:101BF000DC2FCC27C16FD06AC3CFC03C92E5D90798
:101C000080F48C2F8F71C03AD24508F45EC00E94D8
:101C10004B0FC82FD0E0DC2FCC27CC27DF71D06250
:101C2000AFCFC03E82E5D80708F0A3CFDC2FCC278A
:101C3000CC27DF71C06FD06AA3CFCE0199270E9455
:101C4000A90ECC27DF70C82BD92BD06A99CF2C2FA7
:101C50002695269590E2299F900111248C2F837060
:101C6000C1E0D0E002C0CC0FDD1F8A95E2F7C22BA5
:101C7000D32BDD6885CF2C2F26952695277080E203
:101C8000289F900111248C2F8370C1E0D0E002C006
:101C9000CC0FDD1F8A95E2F7C22BD32BDC6870CF07
:101CA0002C2F26952695277090E2299F90011124CC
:101CB0008C2F8370C1E0D0E002C0CC0FDD1F8A956D
:101CC000E2F7C22BD32BDA685BCFC82FD0E0DC2F32
:101CD000CC27C46FD06A54CF8C2F8F710E944B0FCA
:101CE00055E0D695C7955A95E1F7CF70D0E0DC2F37
:101CF000CC27282F30E084FF05C044E0220F331F9B
:101D00004A95E1F7C22BD32BD0693ACF8D2F8F7133
:101D10000E944B0F182FCE0199270E94A90EC12FA8
:101D2000D0E0DC2FCC27CC27DF71C82BD92B77CF85
:101D3000462F7A3030F4663020F4672F0E949C02E0
:101D4000089590E080E008950E94980E0E949A0DF8
:101D5000089582389105B9F1B0F48133910509F401
:101D60007DC048F48932910509F46DC08A3291052D
:101D700009F47BC008958533910509F45FC0893368
:101D8000910509F10895833E9105D9F138F4803E1B
:101D9000910529F1823E910579F10895863E9105DC
:101DA000D9F1873E910509F43EC0843E910541F585
:101DB0002091040221FF24C08091030284FD19C0F8
:101DC00087EE90E0089520910302237009F05AC035
:101DD0002091040223FF14C089E290E0089520912D
:101DE000030220FD38C03091040230FF09C024FFF7
:101DF00043C090E080E008952091030222FDF7CFD8
:101E000008952091030222FD3AC03091040230FD72
:101E100039C024FFF5CFEDCF2091030223FFF0CF8F
:101E200024FDE7CFCDCF2091030223FD2EC03091BA
:101E3000040231FFEECF84EE90E00895209103027A
:101E400025FFDECFC9CF2091030225FD21C02091BF
:101E5000040223FFD5CF89E390E0D2CF2091030283
:101E600026FFCECF8AE290E008952091030226FF5C
:101E7000C7CF81E390E0089583EE90E0089582EE6D
:101E800090E0089580EE90E0089586EE90E0089549
:101E900085E390E008959091030292FF06C0282FF9
:101EA00028712830F9F4877F846093FF06C0282FBB
:101EB00028712831F1F4877E84612091040220FF8B
:101EC00006C0382F38713830D9F4877F816021FF00
:101ED00006C0282F28712831D1F4877E816194FDB6
:101EE000877E0895282F24712430F9F68B7F88602F
:101EF000DCCF282F2471243101F78B7E8861DDCF60
:101F0000382F3171313019F78E7F8860E0CF282F5C
:101F10002171213121F78E7E8861E1CF1092FF017E
:101F20001092000210920102109202020895CF92C4
:101F3000DF92EF92FF926B017C010E94961181115A
:101F40000EC00E941D19C61AD70AE80AF90AC092E3
:101F5000FF01D0920002E0920102F0920202FF9093
:101F6000EF90DF90CF9008950F931F930E949611EA
:101F7000882329F00E941D191F910F9108950E9436
:101F80001D190091FF011091000220910102309172
:101F90000202600F711F821F931FEECF80E0089531
:101FA00008950E941E0C811102C00E94BC0C0E9468
:101FB000290C8093C8010E94330C909304028093F3
:101FC00003020E94D00F0E942E0C90E00E94C706D0
:101FD00080915A0190915B010E94E5060895089551
:101FE0000E94EF0F089508950E94F30F0895E82FBF
:101FF000F0E0E05FFD4F80810895089580EA8A95C2
:10200000F1F7089500C008950E94FE0F0895089505
:102010000E9407100895A5E0B0E0E1E1F0E10C9422
:1020200019200E949611F82E60911A02882309F453
:1020300040C085E0E82E8E010F5F1F4FF8018E2D06
:1020400011928A95E9F7862F90E0B801805F9D4F45
:102050000E94C9118823B9F08091050290E045E003
:1020600050E0B801805F9D4F0E94442021E0209302
:10207000C901892B91F4F12C0E94F40F8F2D259624
:10208000E6E00C9435208091C9018823A1F3F80182
:102090001192EA94E9F71092C901A0910502B0E00B
:1020A000A05FBD4F85E0F80101900D928A95E1F7A0
:1020B000E3CF70E0605F7D4F8091050290E0805F2C
:1020C0009D4F0E9450120E940810D8CFF894E82F1C
:1020D000E295EF70F0E031A1282F2F7081E090E0C1
:1020E00001C0880F2A95EAF7982F9095932391A322
:1020F00092A1892B82A378940895CF93DF93CAE2AB
:10210000D1E089918F3F11F00E94661081E0CF32BB
:10211000D807B9F7C4E2D1E089918F3F11F00E944E
:10212000661081E0CA32D807B9F7DF91CF910895E0
:10213000B0E0A0E0EEE9F0E10C941720EC01D62E1F
:10214000062F10E0C801865D9E4F7C01FC01808156
:102150008F3F09F445C0F894E82FE295EF70F0E066
:1021600091A18F7021E030E001C0220F8A95EAF73B
:10217000892F822B81A382A12095282322A37894E2
:102180000E940210E4E2F1E04AE251E031E0C12CA9
:1021900021912F3F51F1A22FA295AF70B0E0909600
:1021A0008C9190E02F7002C0959587952A95E2F763
:1021B00080FD1BC0832FC82A330F4E175F0741F7DE
:1021C000F70180818F3F11F00E94661061E0C1101D
:1021D00001C060E08D2D0E940410C00FD11FC88285
:1021E000CDB7DEB7E8E00C94332080E0E4CF8091F7
:1021F00002018091020195E0811190E090931A0212
:1022000085E0891B809305020E947D108AE0E0E151
:10221000F2E0DF01982F1D929A95E9F7E6E0F2E0EF
:10222000DF011D928A95E9F785E00E9458110E940E
:10223000F00F0895AAE0B0E0E0E2F1E10C941A207A
:102240008E010F5F1F4F8AE0F80111928A95E9F71E
:10225000F12C6F2DC8010E949810F394F5E0FF1245
:10226000F8CF4AE050E0B80186E092E00E944420B6
:1022700021E0009709F420E0892B41F08AE0F80181
:10228000A6E0B2E001900D928A95E1F760911A0202
:1022900070E0605F7D4F45E086E092E00E9459115A
:1022A000182F0E940B10812B2A96E5E00C94362003
:1022B0000895CF92DF92EF92FF920F931F93CF93E7
:1022C0006C017B01042F222349F081E08093CC0133
:1022D0000E9411199093CB018093CA01C091CC0147
:1022E000C1110AC0C0E08C2FCF911F910F91FF90B8
:1022F000EF90DF90CF9008958091CA019091CB012B
:102300000E942919059770F310E0A801B601C701D2
:102310000E944420892B41F0A801B601C7010E9408
:1023200051201092CC01DFCFC0E0FBCF8091CF01D4
:10233000811107C00E94FA1F882351F081E0809329
:10234000CF0181E09091CF01913009F080E00895B4
:1023500082E08093CF010E94F51FF3CF0E94961177
:1023600008950E94AE11809302010E94961181117E
:102370000E94FF1108950E949611811102C00E94CF
:102380000212089581E09091D0019A3008F080E027
:1023900008950F931F93CF93DF93EC018B018091EE
:1023A000D0018A30B8F4B801CE010E944D12C82F76
:1023B000811122C08091D0018F3FB9F40E94111980
:1023C0009093CE018093CD018C2FDF91CF911F91FF
:1023D0000F9108958091CD019091CE010E9429190D
:1023E000843F914000F7C0E0EFCF8F5F8093D00132
:1023F0008A3020F7C1E0E8CF1092D001E5CF0E94EB
:102400008C1608950E948F160895B0E0A0E0EBE0CE
:10241000F2E10C9418207901C82F880FDD0B4115CB
:102420005105A9F0FE0193E0EE0FFF1F9A95E1F729
:10243000ED5FFE4F818192818F529E4F208130E06F
:102440004217530708F49A01A9010E945120CE01B6
:102450000E947817D82E8823D1F001151105B9F004
:1024600083E0CC0FDD1F8A95E1F7FE01ED5FFE4FA3
:10247000438150E00417150708F4A801CD5FDE4F33
:102480006C817D816F527E4FC7010E9451208D2D3E
:10249000CDB7DEB7E7E00C9434200E943F130895D7
:1024A0000E9456130895A4E0B0E0E9E5F2E10C942F
:1024B0001B206091E8017091E9018091EA019091FF
:1024C000EB010E94381911E0643671058105910510
:1024D00018F10E94B40F6E5F7F4F8F4F9F4F69833B
:1024E0007A838B839C8310E000E030E020E044E0BE
:1024F00050E0BE016F5F7F4F82E00E940512182FEF
:10250000882351F00E941D196093E8017093E9013E
:102510008093EA019093EB01812F2496E4E00C94E0
:102520003720B0E0A0E0E7E9F2E10C9415207C014F
:102530005B016A010E94C21101E010E0882311F0E2
:102540000AE010E0C1E0D0E0B501C701F60109954D
:10255000811104C021960C171D072CF4CDB7DEB7EE
:10256000EAE00C943120CC9F9001CD9F300D300DCE
:10257000112490E080E045E34A95F1F700000196D0
:1025800082179307C1F7E0CFA6E0B0E0EAECF2E1F2
:102590000C9415207B01C0902F01D090300101E0F8
:1025A00010E09E012A5F3F4F50E040E070E060E0A5
:1025B00080E00E940512182F882309F448C05601B4
:1025C0008FEFA81AB80A6091E4017091E50180913B
:1025D000E6019091E7010E94381964367105810582
:1025E000910568F105E010E09E012F5F3F4F50E03C
:1025F00040E070E060E081E00E940512D82E65E0C6
:1026000070E0C5010E94A81311E09E81981310E0AC
:102610001D2141F10E941D196093E4017093E501B1
:102620008093E6019093E70185E0FE013196AFEDDE
:10263000B1E001900D928A95E1F711E013C065E0D9
:1026400070E0C5010E94A8139E818913CBCF85E05D
:10265000F6013196DE01119601900D928A95E1F70F
:102660001111E2CF85E0EFEDF1E0D70101900D927D
:102670008A95E1F7812F2696EAE00C9431200F939A
:102680001F93CF93DF93EC018B0144EC52E10E9446
:102690009112882331F043E552E1B801CE010E9446
:1026A0009112DF91CF911F910F9108950F931F9376
:1026B000CF93DF93C0912F01D0913001CE010196CD
:1026C00025E0FB01DC0101900D922A95E1F765E020
:1026D00070E00E94A81388836E817F818885998528
:1026E0000091DB011091DC012091DD013091DE01D0
:1026F000601771078207930751F06093DB017093B5
:10270000DC018093DD019093DE010E94970FDF9141
:10271000CF911F910F9108950E94DD1A0E941F0D05
:102720000E94EA1A08950E94EF1A0E94300D0E943A
:10273000091B08950E94AA180E94C31A0E94070D3F
:102740000E948C130E9493130E94150DFBCF0895D5
:10275000FC01680F791F8FEF91E36E177F0709F473
:1027600008952191822728E030E087FF06C0880F76
:10277000892721503109C9F7F0CF880FFACFCF93BD
:10278000DF93EC01FB018581882309F4D2C09E010F
:1027900030572332310508F0B2C00E94330C9093B9
:1027A000040280930302FE01E150F047E232F1059A
:1027B00020F4ED53FF4D0C940720809103028160BB
:1027C0008093030293C08091040288608093040286
:1027D0008DC0809103028260F3CF809103028460F8
:1027E000EFCF809103028860EBCF8091040281607B
:1027F000EDCF809104028260E9CF80910302806175
:10280000DFCF809103028062DBCF8091030280647E
:10281000D7CF0E947A06809103028068D1CF809141
:1028200003028C60CDCF809104028360CFCF809172
:1028300003028E7FC5CF80910402877FC7CF80912E
:1028400003028D7FBDCF809103028B7FB9CF809132
:102850000302877FB5CF809104028E7FB7CF80912E
:1028600004028D7FB3CF809103028F7EA9CF809128
:1028700003028F7DA5CF809103028F7BA1CF0E94A1
:102880007A06809103028F779BCF80910302837F2A
:1028900097CF809104028C7F99CF8091030282FBB5
:1028A000992790F921E0922790FB82F990FB83F918
:1028B00087CF80910402982F909591708E7F892BFD
:1028C00090FB81F983CF90910302892F8F7B96FF34
:1028D000806476CF0E947A0690910302892F97FB3D
:1028E00087F980586DCF81E00E94BF0C8091030270
:1028F000909104020E94380C0E947A0680E0DF91D9
:10290000CF91089580E0F0CF90910302892F8F7EC0
:1029100094FF806155CF90910302892F8E7F90FFA5
:1029200081604ECF90910402892F877F93FF88604A
:102930004DCF81E0E4CFB0E0A0E0E1EAF4E10C9417
:102940001820E82FF0E0E052FD4FD490282F269574
:102950002695269530E0F901E058FC4F04918770E8
:1029600010E0082E02C0159507950A94E2F7017051
:102970001127F901E059FC4FE490F12C082E02C018
:10298000F594E7940A94E2F791E0E922FF24F90133
:10299000E05AFC4FC491D0E002C0D595C7958A9506
:1029A000E2F7C170DD270115110519F081EE0E94D3
:1029B000EF03E114F10419F086EE0E94EF038D2D70
:1029C0000E944A04E114F10419F086EE0E941904F1
:1029D0000115110519F081EE0E941904CD2B19F093
:1029E0008CE20E944A04CDB7DEB7E7E00C943420B5
:1029F000EF92FF920F931F93CF93DF938C01F62EEC
:102A00008AE0E82EF8018491882309F454C08130CB
:102A100009F04DC0E8012196FE018491813091F4C6
:102A20002196FE0184910E944A048E010F5F1F4F80
:102A30008F2D815038F3EFE9FFE03197F1F700C0B7
:102A40000000F7CF823039F4E8012296FE0184912C
:102A50000E94EF03EACF833039F4E8012296FE01A9
:102A600084910E941904E1CF8430F9F6E80122969E
:102A7000FE01249190E080E0FE0131962053330B5B
:102A80002A30310548F0019780F2EFE9FFE03197F5
:102A9000F1F700C00000F7CFE89EA001E99E500DBD
:102AA0001124C901840F951F2491EF01E5CF0E94E5
:102AB0009B14E801BACFCDB7DEB7E6E00C94352021
:102AC000CF93DF93EB0186319C4711F50E941D0BDC
:102AD0009D81992399F08A7A91E009F490E090938E
:102AE000EC01811109C089E20E94F50A0E94760B6F
:102AF00080E0DF91CF91089585E3F6CF8091EC01DE
:102B0000811104C089E20E94FD0AF0CF85E3FBCF6A
:102B100081E0EFCF0F931F93CF93DF93C42FD22F7A
:102B2000FC0185818823C9F04093EF010E941119AF
:102B30009093EE018093ED0180E28C0F883040F499
:102B4000C77081E001C0880FCA95EAF70E9453045C
:102B5000DF91CF911F910F9108951091EF01141300
:102B600032C08091ED019091EE010E942919883CBC
:102B7000910548F5C0E2CD0F1D17B9F080E2810F35
:102B8000883040F4177081E001C0880F1A95EAF789
:102B90000E945A04C83048F481E09D2F977001C00C
:102BA000880F9A95EAF70E945304802F0E944A04E6
:102BB000C83070F6D77081E001C0880FDA95EAF767
:102BC0000E945A04C5CF80E28C0F883008F6C77087
:102BD00081E001C0880FCA95EAF7F2CF0F93DB01BD
:102BE00088519C4787309105A0F5FC01EB51FF4DC2
:102BF0000C94072006E221EE41EE6AE17CE7CD016C
:102C00000E948A1580E00F91089507E225EE45EEB7
:102C10006BE17CE7F4CF06E221EE40EE68E17CE771
:102C2000EECF07E225EE44EE69E17CE7E8CF06E26D
:102C300021EE42EE6CE17CE7E2CF07E225EE46EEC4
:102C40006DE17CE7DCCF08E221E045EE6EE17CE758
:102C5000D6CF15968C91882319F01092EF01D3CF1F
:102C600081E0D1CF8EE14A9B02C08150E1F74A9BBF
:102C7000FECF08955A9880E28A95F1F75A9A0895FE
:102C8000FC013BE03A95F1F798E020E080E031E08C
:102C900040E14A95F1F7880F4A9B02C081602327E3
:102CA00042E04A95F1F7000040E14A95F1F7915072
:102CB00079F790E19A95F1F799B132E03A95F1F709
:102CC000000040E14A95F1F792FB992790F992278D
:102CD0002081920F90830895A1E0B0E0E2E7F6E151
:102CE0000C94192019828C017C01E60EF11C0E1542
:102CF0001F0541F481E09981911180E02196E6E081
:102D00000C9435200E943216CE0101960E94401686
:102D1000F80181938F01EBCF529A5A9A08955298F5
:102D20005A9AEA9AE9E6F0E080818F7C80830895E0
:102D30006150770B91E001C0990F6A95EAF720E0A6
:102D400031E0911108C0222391F05A9A80E28A95CD
:102D5000F1F75A980895492F482339F05A9A2327B2
:102D600040E24A95F1F79695ECCF5A98F9CF5A98E8
:102D7000EDCFFF920F931F93CF93DF93EC018C0164
:102D8000060F111DC017D10729F4CDB7DEB7E5E056
:102D90000C943620F9900E943A1668E08F2D0E941C
:102DA0009816F0CF1F920F920FB60F9211240F9327
:102DB0001F932F933F934F935F936F937F938F93C3
:102DC0009F93AF93BF93EF93FF93CF93DF930F92B4
:102DD000CDB7DEB719820E943216CE0101960E944D
:102DE0004016082F069506950695282F22952570E2
:102DF000902F9570290F922F937026952695920FFC
:102E0000982797708981982B09F05CC0043008F0EE
:102E100059C080E18A95F1F75A9A529A82E08A95D0
:102E2000F1F700C05A9888E0089F80011124D8016A
:102E3000AD5FBE4F1696ED91FC9117973097A9F0B4
:102E400060912F017091300114962D913C9115974E
:102E5000260F371F11968D919C911297680F791F3D
:102E600013964C9113978C910995F801ED5FFE4FE5
:102E70006381662351F020912F01309130018481CC
:102E80009581820F931F0E94B9160E943A1680E125
:102E90008A95F1F75A9852985A9A80E18A95F1F7F3
:102EA000F801ED5FFE4F6081662351F020912F0104
:102EB0003091300181819281820F931F0E946C16A4
:102EC0000E9432160F90DF91CF91FF91EF91BF9149
:102ED000AF919F918F917F916F915F914F913F91B2
:102EE0002F911F910F910F900FBE0F901F9018956B
:102EF0000F931F93CF93DF93EC0104970CF04CC01A
:102F0000F894529A5A9885E08A95F1F700009C2F20
:102F1000969595708C2F8570980F892F8370969554
:102F2000969523E0CC0FDD1F2A95E1F7980F8E01CF
:102F3000092B0E943A1600C068E0802F0E94981664
:102F400080E18A95F1F752985A9A4A9B1EC087E011
:102F500090E04A991CC0FE01ED5FFE4F638166233D
:102F6000F9F020912F013091300184819581820FF9
:102F7000931F0E946C16811113C0529A5A9A78942A
:102F8000DF91CF911F910F91089500C0DECF01977F
:102F900029F4529A5A9A789480E0F2CF00C0D9CF9F
:102FA0000E94321680E28A95F1F75A98529A80E18F
:102FB0008A95F1F7CD5FDE4F6881662351F020914D
:102FC0002F013091300189819A81820F931F0E94D5
:102FD000B9160E943A16789481E0D2CF90933301CB
:102FE0008093320108959093F2018093F101089546
:102FF0000E949611811103C08091F0010895E09123
:10300000F101F091F201309729F00190F081E02D6B
:103010000995089580E00895E091F101F091F201A1
:10302000309721F00280F381E02D099508959C01ED
:103030002E5F3F4FAC01485F5F4F80E0241735079C
:1030400009F40895F90191919F019923B9F38F5FD4
:10305000F5CF662349F0FC01329608962191261798
:1030600029F0E817F907D1F780E0089581E0089585
:103070009C01FC0132969FEF80E04191461751F090
:103080009F3F19F4411101C0982F8F5F8630A9F737
:103090009F3F09F40895290F311D97FD3A95F901D5
:1030A00062830895FC01329608962191261303C08D
:1030B000DF0111971C92E817F907B9F708950E94EC
:1030C000381808950E9452180895029626E0FC01CF
:1030D00011922A95E9F7089508950E946C180895B1
:1030E000811106C081E08093F3010E946D1808955C
:1030F00082E0F9CF83E08093F3010E946D18089578
:103100000E947018089581E08093F3010E946D1869
:1031100008950E9483180895089508950E948D18B7
:103120000895089508950E948C180895CF930E94E1
:1031300091180E941A110E949218C0E08C2F0E94D0
:10314000F70F811105C0CF5FCA30C1F7CF91089545
:1031500081E0FCCF85B7806885BF85B7806885BF73
:1031600008951F921FB61F9211248F939F93AF93C0
:10317000BF938091F401811113C080911B02909143
:103180001C02A0911D02B0911E024196A11DB11D0D
:1031900080931B0290931C02A0931D02B0931E0209
:1031A000BF91AF919F918F911F901FBE1F90189557
:1031B00080912302843031F10E946D031092F4015A
:1031C00088E190E020E40FB6F894A8958093600021
:1031D0000FBE2093600083B7817F846083BF83B775
:1031E000816083BF7894889583B78E7F83BF0FB645
:1031F000F894A89580916000886180936000109297
:1032000060000FBE08950E947A060E94720308951E
:1032100082E084BD93E095BD9AEF97BD80936E00E8
:1032200008952FB7F89480911B0290911C02A091F1
:103230001D02B0911E022FBF08952FB7F894609120
:103240001B0270911C0280911D0290911E022FBFE3
:1032500008959C014FB7F89480911B0290911C0235
:10326000A0911D02B0911E024FBF821B930B0895C7
:10327000CF92DF92EF92FF922FB7F894C0901B028B
:10328000D0901C02E0901D02F0901E022FBFA701FB
:103290009601261B370B480B590BCA01B901FF9049
:1032A000EF90DF90CF90089578941F921FB61F92F1
:1032B00011248F939F93AF93BF9380911B029091A2
:1032C0001C02A0911D02B0911E020196A11DB11D0C
:1032D00080931B0290931C02A0931D02B0931E02C8
:1032E000BF91AF919F918F911F901FBE1F90189516
:1032F00087E797E7909301088093000888E19AE0B8
:103300000FB6F894A895809360000FBE909360006C
:10331000FFCF88E19AE00FB6F894A89580936000FB
:103320000FBE90936000FFCF8091FD010895089536
:1033300008959B01BA01909123029430E9F48F70B3
:103340008093E9009FEF8091E800915085FD06C0D1
:1033500085ED8A95F1F700009111F5CF8091E80095
:1033600085FF0AC050E040E0C9010E946E1B8091B9
:10337000E8008E778093E8000895CF93DF93EC0107
:1033800048E050E0BC0181E00E94991988E0FE010C
:10339000A5EFB1E001900D928A95E1F7DF91CF9111
:1033A000089580912202811109C00E94FE1C0E9492
:1033B0005B1D8091E20084608093E200089510928A
:1033C000220208950E948318089560911F0281E0EF
:1033D000611101C080E00E947A1808959091230243
:1033E00081E0943009F080E060911F020E94801813
:1033F000089542E061EC81E00E947A1C90912302E2
:1034000081E0943009F080E060911F020E94701802
:10341000089580912502833009F461C030F4813031
:10342000D1F1823009F49EC008958A3009F48AC02F
:103430008B3009F46FC0893009F050C080912402AC
:10344000813209F04BC08091280290912902892B8A
:1034500009F044C08091E800877F8093E800809164
:10346000E80082FF37C09091F3008091F20002974C
:1034700031F48091F100813011F0863021F4809197
:10348000F1008093FD018091E8008B778093E80044
:103490000E94AE1C23C080912402813AF9F48091ED
:1034A000E800877F8093E8008091280290912902AC
:1034B000892B61F468E085EF91E070E00E94BD1B0C
:1034C0008091E8008B778093E800089560E090E0B9
:1034D00080E0F3CF809123028111C1CF08958091C4
:1034E0002402813AD9F78091280290912902892BF0
:1034F000A9F78091E800877F8093E8008091E80039
:1035000080FFFCCF809123018093F1008091E8003F
:103510008E77BCCF80912402813201F780912802FE
:1035200090912902892BD1F68091E800877F8093C2
:10353000E8000E94AE1C80912602809323010E9425
:103540007A06089580912402813241F68091E80044
:10355000877F8093E8000E94AE1C809127028093B1
:10356000FE01089580912402813A09F0B7CF80913D
:10357000E800877F8093E8008091E80080FFFCCF1F
:103580008091FE01C1CF84B7877F84BF0FB6F894C6
:10359000A89580916000886180936000109260001F
:1035A0000FBE80E890E00FB6F8948093610090938E
:1035B00061000FBE0E94891808950E94FE1C0E949F
:1035C0005B1DE2EEF0E080818460808378940E944D
:1035D000DA1F08958BE191E00E94F317089580911E
:1035E0002302853031F480912302853019F00E9446
:1035F000031908950E94D81880912102882399F315
:103600000E949618882379F30E94581B0E947A061C
:10361000EACF08959A0140912A0250912B020E940C
:10362000121B0895492F552743305105C9F058F40E
:103630004130510599F142305105A9F190E080E007
:1036400050E040E01DC04132510509F142325105C0
:10365000A9F780E490E04AEE53E0672B79F710C0B9
:1036600099278130910581F0009729F0029731F771
:10367000E0E9F3E002C0E2EBF3E0849190E0AF0117
:10368000F901518340830895E0EAF3E0F6CF89E041
:1036900090E048EC53E0672B89F6F2CF82E190E0AE
:1036A00048ED53E0EDCF82E290E046EB53E0E8CF07
:1036B00080E189BD82E189BD09B400FEFDCF809122
:1036C000D8008F7D8093D8008091E0008260809345
:1036D000E0008091E00081FDFCCF0895AF92BF92A1
:1036E000CF92DF92FF920F931F93CF93DF936C01E2
:1036F000EB018A010E94CD1CF82E811123C0011517
:10370000110539F0F80180819181C81BD90BC80ED1
:10371000D91EB12CA12C2097A9F08091E80085FD3D
:1037200022C08091E8008E778093E8000115110592
:10373000A1F0F80180819181A80EB91EB182A0820A
:1037400085E0F82E8F2DDF91CF911F910F91FF9083
:10375000DF90CF90BF90AF9008950E94CD1C88233A
:10376000D1F2F82EEFCFF60181916F018093F10035
:103770002197FFEFAF1ABF0ACECFFC0180912A023A
:1037800090912B0286179707A0F06115710529F417
:103790009091E8009E779093E80090E061157105A4
:1037A00051F4911108C08091E80082FF34C080E09C
:1037B0000895BC01F2CF809123028823C1F18530A6
:1037C000C1F18091E80083FD30C08091E80082FD66
:1037D000EACF8091E80080FFE1CF8091F300209153
:1037E000F200382F6115710519F02830310558F0B5
:1037F00091E02830310509F090E02091E8002E7723
:103800002093E800CBCF81918093F1006150710942
:103810002F5F3F4FE7CF80912302882341F085300F
:1038200041F08091E80083FFBECF81E0089582E0FF
:10383000089583E00895FC0180912A0290912B0263
:1038400086179707A0F06115710529F48091E800AB
:103850008E778093E80090E06115710551F4911125
:1038600008C08091E80082FF35C080E00895BC0167
:10387000F2CF809123028823C9F18530C9F180916C
:10388000E80083FD31C08091E80082FDEACF80919D
:10389000E80080FFE1CF8091F3002091F200382F03
:1038A0006115710519F02830310558F091E0283084
:1038B000310509F090E08091E8008E778093E80070
:1038C000CBCF84918093F1003196615071092F5FC5
:1038D0003F4FE6CF80912302882341F0853041F0AD
:1038E0008091E80083FFBDCF81E0089582E00895D4
:1038F00083E00895982F973028F08F708093E90027
:1039000081E008959093E900242F762F50E09817D6
:1039100031F07091EC002091ED005091F00021FD0C
:1039200002C09F5FE8CF3091EB003E7F3093EB0009
:103930003091ED003D7F3093ED003091EB00316030
:103940003093EB007093EC002093ED005093F00067
:103950002091EE0027FDE5CF80E0089580912402BC
:1039600087FF13C08091E80082FF06C08091E800C5
:103970008B778093E80004C0809123028111F2CFFD
:103980000895809123028823D9F38091E80080FF75
:10399000F8CF8091E8008E77ECCF2091E400309151
:1039A000E50095E6A9012091EC00822F817020FFAF
:1039B00006C08091E80080FF06C080E00895209155
:1039C000E80022FD1AC080912302882389F0853007
:1039D00089F08091EB0085FD0FC02091E4003091CB
:1039E000E50042175307F9F29150E1F684E008959B
:1039F00082E0089583E0089581E008950E946D1D9E
:103A00000E94751DE0EEF0E0808181608083E8ED2A
:103A1000F0E080818F77808319BCA7EDB0E08C91B6
:103A20008E7F8C9380818F7E8083109222020895F6
:103A30000F931F93CF93DF930E946D1D0E94751DFE
:103A4000C8EDD0E088818F778883888180688883FB
:103A500088818F7D888319BC1092230210921F02E7
:103A6000109221021092200200EE10E0F8018081F5
:103A70008B7F808388818160888342E060E080E082
:103A80000E947A1CE1EEF0E080818E7F8083E2EE7E
:103A9000F0E0808181608083808188608083F8018C
:103AA00080818E7F8083888180618883DF91CF9140
:103AB0001F910F910895E8EDF0E080818F7E808363
:103AC000E7EDF0E080818160808384E082BF81E067
:103AD000809322020E94181D0895E8EDF0E0808195
:103AE0008E7F80831092E20008951092DA00109287
:103AF000E10008951F920F920FB60F9211242F9399
:103B00003F934F935F936F937F938F939F93AF9365
:103B1000BF93EF93FF938091E10082FF0BC08091F0
:103B2000E20082FF07C08091E1008B7F8093E1007B
:103B30000E94D91F8091DA0080FF19C08091D800BF
:103B400080FF15C08091DA008E7F8093DA0080912B
:103B5000D90080FF96C080E189BD82E189BD09B4AA
:103B600000FEFDCF81E0809323020E94D119809155
:103B7000E10080FF19C08091E20080FF15C08091B4
:103B8000E2008E7F8093E2008091E200806180936A
:103B9000E2008091D80080628093D80019BC85E053
:103BA000809323020E94E5198091E10084FF2BC0DD
:103BB0008091E20084FF27C080E189BD82E189BD58
:103BC00089B5982F917080FFFBCF8091D8008F7DB1
:103BD0008093D8008091E1008F7E8093E1008091F6
:103BE000E2008F7E8093E2008091E200816080930A
:103BF000E20080911F02882309F449C084E0809389
:103C000023020E94EE198091E10083FF29C0809178
:103C1000E20083FF25C08091E100877F8093E1006F
:103C200082E08093230210921F028091E1008E7F38
:103C30008093E1008091E2008E7F8093E20080918A
:103C4000E20080618093E20042E060E080E00E9458
:103C50007A1C8091F00088608093F0000E94E21945
:103C6000FF91EF91BF91AF919F918F917F916F9154
:103C70005F914F913F912F910F900FBE0F901F902A
:103C8000189519BC109223020E94DF1970CF809101
:103C9000E30087FD93E090932302B3CF1F920F922E
:103CA0000FB60F9211242F933F934F935F936F930F
:103CB0007F938F939F93AF93BF93CF93DF93EF93B4
:103CC000FF93D091E900DF708091EC00C82FC170A4
:103CD00080FDC0E81092E9008091F000877F80931A
:103CE000F00078940E94921E1092E9008091F000FA
:103CF00088608093F000CD2BCF70C093E900FF91D6
:103D0000EF91DF91CF91BF91AF919F918F917F9173
:103D10006F915F914F913F912F910F900FBE0F9038
:103D20001F901895AAE2B0E0E8E9FEE10C941C208F
:103D300084E292E02091F100FC012193CF01F2E0B6
:103D40008C329F07B9F70E94091A8091E80083FF1F
:103D50001EC180912402909125029A3008F017C16B
:103D6000E92FF0E0E451FF4D0C940720803899F0E2
:103D7000823809F00CC1809128028F70873008F0DA
:103D800006C18093E9008091EB0085FB882780F9CC
:103D90001092E90006C080912002909121029111B9
:103DA00082609091E800977F9093E8008093F10003
:103DB0001092F1008091E8008E77E5C0882309F425
:103DC000D3C0823009F0E3C0809126028111D6C0B1
:103DD000809128028F702FEF280F263008F0D7C06F
:103DE0008093E9002091EB0020FFC8C0933031F4AC
:103DF0008091EB0080628093EB00C0C09091EB005B
:103E000090619093EB0021E030E001C0220F8A9591
:103E1000EAF72093EA001092EA008091EB008860B4
:103E2000EACF8111B4C0109126021F778091E30080
:103E30008078812B8093E3008091E800877F8093D6
:103E4000E8000E94AE1C8091E80080FFFCCF8091CA
:103E5000E30080688093E30082E0111183E08093A7
:103E6000230295C08058823008F091C080912602CC
:103E7000909127028C3D23E09207A1F583E08A838D
:103E80008AE289834FB7F894DE01139620E03EE082
:103E900051E2E32FF0E050935700E49120FF03C07C
:103EA000E295EF703F5FEF708E2F90E0EA30C0F048
:103EB000C7968D939D932F5F243159F74FBF809103
:103EC000E800877F8093E8006AE270E0CE01019607
:103ED0000E94BD1B8091E8008B778093E80057C05B
:103EE000C096E7CF6091280270912902AE014F5F22
:103EF0005F4F0E940A1BBC01892B09F448C09091B6
:103F0000E800977F9093E80089819A810E941B1CAA
:103F1000E1CF8038E1F58091E800877F8093E80069
:103F200080911F028093F10045CF811130C09091A4
:103F30002602923060F58091E800877F8093E80048
:103F400090931F020E94AE1C80911F02882311F0E3
:103F500084E005C08091E30087FDFACF81E0809383
:103F600023020E94F91913C080912602813079F44E
:103F700081E0933009F080E0809321021092E90003
:103F80008091E800877F8093E8000E94AE1C8091BA
:103F9000E80083FF0AC08091E800877F8093E800F3
:103FA0008091EB0080628093EB00AA96E3E00C9492
:103FB00038200895CF93809123028823A1F0C091E7
:103FC000E900CF709091EC00892F817090FD80E81E
:103FD000C82B1092E9008091E80083FD0E94921E98
:103FE000CF70C093E900CF9108950E94FE1C1092FB
:103FF00023020895E8EDF0E08081806180838AE10A
:104000008A95F1F700C08091D90081700895EE0F74
:10401000FF1F0590F491E02D09942F923F924F924B
:104020005F926F927F928F929F92AF92BF92CF9248
:10403000DF92EF92FF920F931F93CF93DF93CDB751
:10404000DEB7CA1BDB0B0FB6F894DEBF0FBECDBFC9
:1040500009942A88398848885F846E847D848C849A
:104060009B84AA84B984C884DF80EE80FD800C81A3
:104070001B81AA81B981CE0FD11D0FB6F894DEBF86
:104080000FBECDBFED010895FB01DC0104C08D9191
:104090000190801921F441505040C8F7881B990BBA
:1040A0000895FB01DC0102C001900D924150504087
:1040B000D8F70895F999FECF92BD81BDF89A992756
:1040C00080B50895A8E1B0E042E050E00C949E2055
:1040D000DC01A40FB51F4150504048F0CB01840FC4
:1040E000951F2E910E94792041505040D0F708959D
:1040F000262FF999FECF92BD81BDF89A019700B4A1
:10410000021639F01FBA20BD0FB6F894FA9AF99A40
:104110000FBE08950396272F0E9479200E947820D1
:10412000252F0E947920242F0C9479200196272F87
:104130000E9479200C947820DC01CB01FC01F999D4
:10414000FECF06C0F2BDE1BDF89A319600B40D92E3
:1041500041505040B8F70895F894FFCF47025002FD
:1041600056025C02620268026E0274027A02A004C5
:10417000A004F004F004CF04CF04CF04CF0455050D
:10418000C605D505D50517148B141F14E913ED13B7
:104190002314F11327143314FD138414011437145A
:1041A00005143B14631409143F146A140F144514C6
:1041B0004D14F5132B14F9132F1413144914591417
:1041C00073148214E3131B1492140B161116FA15B0
:1041D000051617161D162316B61EDE1EC71FDE1E79
:0C41E000C71F111F321FC71F891F951F2A
:1041EC00AA01010000000100000000000000050110
:1041FC0000000004060000000000009419BD19988E
:10420C0019971901F6F7313332366697C63435D122
:02421C0001009F
:00000001FF
